:100000000C9465000C948D000C948D000C948D0064
:100010000C948D000C948D000C948D000C948D002C
:100020000C948D000C948D000C948D000C948D001C
:100030000C948D000C948D000C948D000C948D000C
:100040000C9498020C948D000C9408030C94E2021A
:100050000C948D000C948D000C948D000C948D00EC
:100060000C948D000C948D005D048104D70435053B
:100070009605CC051606580600000000240027004F
:100080002A0000000000250028002B0004040404BE
:100090000404040402020202020203030303030332
:1000A000010204081020408001020408102001020F
:1000B00004081020000000080002010000030407EB
:1000C0000000000000000000FF0611241FBECFEF5B
:1000D000D8E0DEBFCDBF11E0A0E0B1E0EEEAF1E193
:1000E00002C005900D92A032B107D9F721E0A0E23D
:1000F000B1E001C01D92A53EB207E1F710E0C5E6F0
:10010000D0E004C02197FE010E94CA08C436D1077E
:10011000C9F70E943A030C94D5080C94000090E0B3
:10012000FC01EC54FF4F2491FC01E056FF4F349149
:10013000FC01E457FF4FE491EE2309F43CC0222375
:1001400039F1233091F038F42130A9F0223001F553
:1001500084B58F7D12C0273091F02830A1F0243073
:10016000B9F4809180008F7D03C0809180008F77EB
:10017000809380000DC084B58F7784BD09C08091C5
:10018000B0008F7703C08091B0008F7D8093B00066
:10019000F0E0EE0FFF1FEE57FF4FA591B4919FB710
:1001A000F894611104C08C913095382302C0EC9111
:1001B0003E2B3C939FBF0895482F50E0FA01E05634
:1001C000FF4F9491FA01E457FF4F2491222399F0B5
:1001D00030E0220F331FF901E858FF4FA591B49189
:1001E000F901EE57FF4F259134912FB7F894EC9118
:1001F000E92BEC932FBF6115710511F460E004C089
:100200006F3F710519F461E00C948F00FA01EC5412
:10021000FF4FE491E330F9F048F4E130B9F0E23017
:10022000A1F584B5806284BD68BD0895E730E9F02A
:10023000E83019F1E43049F58091800080628093C4
:10024000800070938B0060938A00089584B5806865
:1002500084BD67BD08958091800080688093800090
:10026000709389006093880008958091B000806841
:100270008093B0006093B30008958091B0008062D5
:100280008093B0006093B4000895603871050CF05D
:10029000BACFB4CF8E3008F08E50877080648093D0
:1002A0007C0080917A00806480937A0080917A004B
:1002B00086FDFCCF809178002091790090E0922B10
:1002C00008953FB7F8948091E1019091E201A091E7
:1002D000E301B091E40126B5A89B05C02F3F19F0BA
:1002E0000196A11DB11D3FBFBA2FA92F982F8827B6
:1002F000820F911DA11DB11DBC01CD0142E0660F11
:10030000771F881F991F4A95D1F70895CF92DF92E2
:10031000EF92FF920F931F93CF93DF936C017A01BB
:100320008B01C0E0D0E0CE15DF0581F0D8016D91E2
:100330008D01D601ED91FC910190F081E02DC60177
:100340000995892B11F02196EECF7E01C701DF912F
:10035000CF911F910F91FF90EF90DF90CF90089574
:10036000089580E090E00895FC01538D448D252F81
:1003700030E0842F90E0821B930B541710F0CF963F
:10038000089501970895FC01918D828D981761F071
:10039000828DDF01A80FB11D5D968C91928D9F5FBC
:1003A0009F73928F90E008958FEF9FEF0895FC0167
:1003B000918D828D981731F0828DE80FF11D858D1A
:1003C00090E008958FEF9FEF0895FC01918D228DAD
:1003D000892F90E0805C9F4F821B91098F73992732
:1003E000089580E291E00E94E50121E0892B09F463
:1003F00020E0822F0895FC01848DDF01A80FB11D3C
:10040000A35ABF4F2C91848D90E001968F7399274A
:10041000848FA689B7892C93A089B1898C91837028
:1004200080648C93938D848D981306C00288F38921
:10043000E02D80818F7D80830895EF92FF920F934E
:100440001F93CF93DF93EC0181E0888F9B8D8C8D80
:10045000981305C0E889F989808185FD26C0F62EAC
:100460000B8D10E00F5F1F4F0F731127E02E8C8D47
:10047000E8120CC00FB607FCFACFE889F989808131
:1004800085FFF5CFCE010E94FB01F1CF8B8DFE01E0
:10049000E80FF11DE35AFF4FF0829FB7F8940B8FDE
:1004A000EA89FB89808180620AC09FB7F894EE894F
:1004B000FF896083E889F989808183708064808303
:1004C0009FBF81E090E0DF91CF911F910F91FF904E
:1004D000EF900895CF93DF93EC01888D8823C9F0C6
:1004E000EA89FB89808185FD05C0A889B9898C913D
:1004F00086FD0FC00FB607FCF5CF808185FFF2CFD8
:10050000A889B9898C9185FFEDCFCE010E94FB01AE
:10051000E7CFDF91CF91089580E090E0892B29F01B
:100520000E94F10181110C94000008950E94D008EE
:100530001F920F920FB60F9211242F933F938F9318
:100540009F93AF93BF938091DD019091DE01A091C5
:10055000DF01B091E0013091DC0123E0230F2D3762
:1005600020F40196A11DB11D05C026E8230F0296B7
:10057000A11DB11D2093DC018093DD019093DE016C
:10058000A093DF01B093E0018091E1019091E2013D
:10059000A091E301B091E4010196A11DB11D8093EA
:1005A000E1019093E201A093E301B093E401BF91D4
:1005B000AF919F918F913F912F910F900FBE0F9010
:1005C0001F9018951F920F920FB60F9211242F9320
:1005D0003F934F935F936F937F938F939F93AF93CB
:1005E000BF93EF93FF9380E291E00E94FB01FF91A4
:1005F000EF91BF91AF919F918F917F916F915F919B
:100600004F913F912F910F900FBE0F901F90189513
:100610001F920F920FB60F9211242F938F939F93D7
:10062000EF93FF93E0913001F09131018081E091EF
:100630003601F091370182FD12C09081809139011D
:100640008F5F8F7320913A01821751F0E091390149
:10065000F0E0E05EFE4F958F8093390101C080810C
:10066000FF91EF919F918F912F910F900FBE0F905F
:100670001F901895CF93DF9300D000D000D0CDB756
:10068000DEB7789484B5826084BD84B5816084BD12
:1006900085B5826085BD85B5816085BD80916E0020
:1006A000816080936E001092810080918100826051
:1006B000809381008091810081608093810080918E
:1006C00080008160809380008091B100846080937D
:1006D000B1008091B00081608093B00080917A0079
:1006E000846080937A0080917A00826080937A009F
:1006F00080917A00816080937A0080917A0080688E
:1007000080937A001092C100E0913001F0913101A4
:1007100082E08083E0912C01F0912D011082E09124
:100720002E01F0912F018FEC808310923801E0911F
:100730003401F091350186E08083E0913201F0913F
:100740003301808180618083E0913201F091330137
:10075000808188608083E0913201F0913301808153
:1007600080688083E0913201F091330180818F7D38
:100770008083A2E1B1E08D919D919927FC01E05623
:10078000FF4F2491FC01E457FF4F84918823C9F067
:1007900090E0880F991FFC01E858FF4F4591549154
:1007A000FC01EE57FF4F659174919FB7F894FA01E1
:1007B0008081209582238083FB0180818223808336
:1007C0009FBF20E231E02A173B07A9F63CED232E1C
:1007D00031E0332E2EECE22E21E0F22EF7011192C1
:1007E00011922E163F06D9F78EE00E944A016C0145
:1007F0008EE00E944A015C0102E111E0D8019C9068
:100800000E5F1F4F892D0E944A01C816D90624F495
:10081000892D0E944A016C01892D0E944A018A1586
:100820009B0524F4892D0E944A015C01E0E2F1E07D
:10083000E017F10719F79EECA92E91E0B92E02E11D
:1008400011E0D8018C910E5F1F4F0E944A01C8161B
:10085000D9062CF421E030E0F5013183208332E029
:10086000A30EB11C80E291E08017910751F7AEEC26
:10087000B1E0E0E0F0E08D919D91019709F43196AF
:100880002A163B06C1F78FEB91E0AC01D7012D9101
:100890003D917D012130310519F421E0DA012C93DD
:1008A0004F5F5F4F2E143F0489F7E830F10508F0E1
:1008B00003C2EC5CFF4F0C94CA088091BD0190917B
:1008C000BE019E838D83009709F4F8C106970297B5
:1008D00048F487E090E09093BE018093BD01A7E0CB
:1008E000B0E0A1C18D819E810796029708F0E6C114
:1008F00089EF9FEF9093BE018093BD01E9EFFFEF79
:10090000B1C020E030E0DC014D91CD01442309F479
:1009100047C02330310509F4CBC13CF42130310507
:10092000A1F022303105D1F007C02530310541F169
:10093000F4F02630310569F18AEF9FEF9093BE0104
:100940008093BD01EAEFFFEF8DC08CEF9FEF909396
:10095000BE018093BD012CEF3FEF88C18EEF9FEF6A
:100960009093BE018093BD01AEEFBFEF5CC1E2E0AA
:10097000F0E0F093BE01E093BD0122E030E076C1EB
:1009800084E090E09093BE018093BD01A4E0B0E0CC
:100990004AC13093BE012093BD01E6E0F0E062C0A1
:1009A0002F5F3F4F2730310509F0ADCF87C18091D0
:1009B000BF019091C001882359F0992349F08BEF32
:1009C0009FEF9093BE018093BD012BEF3FEF4EC18F
:1009D0008091C201992349F081118ACF9091C10180
:1009E000992319F08DEF9FEF63C09091C101992376
:1009F00059F0882349F0AFEFBFEFB093BE01A09349
:100A0000BD01EFEFFFEF2EC02091C301882359F005
:100A1000222349F021E030E03093BE012093BD0154
:100A200081E090E049C09091C401222359F09923BC
:100A300081F183E090E09093BE018093BD01A3E03B
:100A4000B0E0F1C0992329F1811143CF8091C50114
:100A50008823F9F085E090E09093BE018093BD017A
:100A6000E5E0F0E0FE83ED8329C18091C0018111B2
:100A700015C09091BF01911122C09091C201809147
:100A8000C3019923C1F1811129C02091C101211114
:100A900046C02091BD013091BE01E8C09091C101D6
:100AA000992339F39091C201992319F38CEF9FEFA9
:100AB0009093BE018093BD019E838D83FFC08823E8
:100AC000E1F28091C1018823C1F28AEF9FEF9093F8
:100AD000BE018093BD01AAEFBFEFA5C02091C40164
:100AE000222349F0E4E0F0E0F093BE01E093BD0181
:100AF00024E030E0BBC0882341F22091C4012223CE
:100B000021F22091C501222309F4BFCF86E090E0B5
:100B10009093BE018093BD01A6E0B0E084C099230C
:100B200009F4B7CF882309F4B4CFC2C08091BF01C4
:100B30008823A9F08091C001882389F08091C101A8
:100B4000882369F08091C201882349F0E8EFFFEF24
:100B5000F093BE01E093BD0128EF3FEF87C0809185
:100B6000C501882309F495CF8091C401882309F435
:100B700090CF8091C301882309F48BCF8091C2016B
:100B8000882309F486CF88E090E09093BE0180939B
:100B9000BD01A8E0B0E047C02091BF019091C00125
:100BA0008091C1012223A9F0992319F1882389F0AA
:100BB0002091C201222369F02091C301222349F030
:100BC000EEEFFFEFF093BE01E093BD012EEF3FEF9C
:100BD0004DC0992371F0882349F19091C201992366
:100BE00041F09091C301992321F09091C40191119A
:100BF0005FC08823D9F08091C2018823B9F0809129
:100C0000C301882399F08091C401882379F08091F1
:100C1000C501882359F082E090E09093BE01809353
:100C2000BD01A2E0B0E0BE83AD8348C09091BF019A
:100C30008091C0019923E9F08823D1F19091C101FD
:100C40009923B9F09091C201992399F09091C30131
:100C5000992379F09091C401992359F0EFEFFFEFB8
:100C6000F093BE01E093BD012FEF3FEF3E832D8354
:100C700025C08823E9F08091C1018823C9F08091C3
:100C8000C2018823A9F08091C301882389F0809153
:100C9000C401882369F08091C501882349F081E06F
:100CA00090E09093BE018093BD01A1E0B0E0BBCF86
:100CB0001092BE011092BD011E821D82ED81FE8147
:100CC000BF01FF0F880B990B0E94D1076B017C01BC
:100CD0002091CA013091CB014091CC015091CD01BE
:100CE0000E942D072B013C012091C6013091C701C4
:100CF0004091C8015091C901C701B6010E942C075B
:100D000020E030E040EF51E40E945D084B015C01BF
:100D100020E030E04CE152E4C701B6010E945D08DA
:100D200069837A838B839C832AE037ED43EA5BE314
:100D3000C301B2010E945D089B01AC0169817A8107
:100D40008B819C810E942D079B01AC01C501B401E0
:100D50000E942D074B015C014092CA015092CB01C9
:100D60006092CC017092CD01C092C601D092C701B1
:100D7000E092C801F092C9019B01AC0160E070E013
:100D80008FE793E40E942C070E9499078AE00E9453
:100D9000DC0020E030E04FE753E4C501B4010E94DD
:100DA0002D070E9499078BE00E94DC000E946101E0
:100DB0004B015C0184E6C82ED12CE12CF12C0E9461
:100DC0006101DC01CB0188199909AA09BB09883E98
:100DD0009340A105B10598F3F1E0CF1AD108E108DD
:100DE000F10828EE820E23E0921EA11CB11CC11452
:100DF000D104E104F10419F70E948C02EBCCE0E28B
:100E0000F1E01382128288EE93E0A0E0B0E08483E8
:100E10009583A683B78384E091E09183808385ECFA
:100E200090E09587848784EC90E09787868780ECB4
:100E300090E0918B808B81EC90E0938B828B82ECA5
:100E400090E0958B848B86EC90E0978B868B118E4F
:100E5000128E138E148E08955058BB27AA270E9415
:100E600044070C9423080E94150838F00E941C08BF
:100E700020F039F49F3F19F426F40C9412080EF474
:100E8000E095E7FB0C940C08E92F0E94340858F316
:100E9000BA17620773078407950720F079F4A6F55F
:100EA0000C9456080EF4E0950B2EBA2FA02D0B01D2
:100EB000B90190010C01CA01A0011124FF27591B9F
:100EC00099F0593F50F4503E68F11A16F040A22FA5
:100ED000232F342F4427585FF3CF46953795279516
:100EE000A795F0405395C9F77EF41F16BA0B620B15
:100EF000730B840BBAF09150A1F0FF0FBB1F661F5C
:100F0000771F881FC2F70EC0BA0F621F731F841F9E
:100F100048F4879577956795B795F7959E3F08F0C4
:100F2000B0CF9395880F08F09927EE0F9795879586
:100F300008950E94A0076894B1110C945708089571
:100F40000E943C0888F09F5798F0B92F9927B75115
:100F5000B0F0E1F0660F771F881F991F1AF0BA955D
:100F6000C9F714C0B13091F00E945608B1E008955D
:100F70000C945608672F782F8827B85F39F0B93F4F
:100F8000CCF3869577956795B395D9F73EF4909510
:100F90008095709561957F4F8F4F9F4F0895E8948E
:100FA00009C097FB3EF490958095709561957F4FB1
:100FB0008F4F9F4F9923A9F0F92F96E9BB2793955F
:100FC000F695879577956795B795F111F8CFFAF46F
:100FD000BB0F11F460FF1BC06F5F7F4F8F4F9F4FA0
:100FE00016C0882311F096E911C0772321F09EE8FE
:100FF000872F762F05C0662371F096E8862F70E064
:1010000060E02AF09A95660F771F881FDAF7880F3D
:101010009695879597F9089597F99F6780E870E00E
:1010200060E008959FEF80EC089500240A9416165E
:10103000170618060906089500240A9412161306C6
:10104000140605060895092E0394000C11F4882354
:1010500052F0BB0F40F4BF2B11F460FF04C06F5F70
:101060007F4F8F4F9F4F089557FD9058440F551F46
:1010700059F05F3F71F04795880F97FB991F61F01A
:101080009F3F79F087950895121613061406551F91
:10109000F2CF4695F1DF08C0161617061806991FFD
:1010A000F1CF86957105610508940895E894BB27F2
:1010B00066277727CB0197F908950E9470080C9452
:1010C00023080E94150838F00E941C0820F0952380
:1010D00011F00C940C080C94120811240C9457086D
:1010E0000E94340870F3959FC1F3950F50E0551F8F
:1010F000629FF001729FBB27F00DB11D639FAA276D
:10110000F00DB11DAA1F649F6627B00DA11D661FBB
:10111000829F2227B00DA11D621F739FB00DA11DDC
:10112000621F839FA00D611D221F749F3327A00D96
:10113000611D231F849F600D211D822F762F6A2F32
:1011400011249F5750409AF0F1F088234AF0EE0F97
:10115000FF1FBB1F661F771F881F91505040A9F7C4
:101160009E3F510580F00C940C080C9457085F3F8B
:10117000E4F3983ED4F3869577956795B795F79500
:10118000E7959F5FC1F7FE2B880F911D9695879578
:1011900097F90895EE0FFF1F0590F491E02D099443
:0E11A00081E090E0F8940C94D508F894FFCF0D
:1011AE00000000001D028601B4016A02E501C301C0
:1011BE00D7010E000F0010001100120013001500D1
:107800000C94343C0C94513C0C94513C0C94513CE1
:107810000C94513C0C94513C0C94513C0C94513CB4
:107820000C94513C0C94513C0C94513C0C94513CA4
:107830000C94513C0C94513C0C94513C0C94513C94
:107840000C94513C0C94513C0C94513C0C94513C84
:107850000C94513C0C94513C0C94513C0C94513C74
:107860000C94513C0C94513C11241FBECFEFD8E036
:10787000DEBFCDBF11E0A0E0B1E0ECE9FFE702C060
:1078800005900D92A230B107D9F712E0A2E0B1E065
:1078900001C01D92AD30B107E1F70E942D3D0C945F
:1078A000CC3F0C94003C982F959595959595959582
:1078B000905D8F708A307CF0282F295A8091C0000B
:1078C00085FFFCCF9093C6008091C00085FFFCCF60
:1078D0002093C6000895282F205DF0CF982F809127
:1078E000C00085FFFCCF9093C6000895EF92FF92F1
:1078F0000F931F93EE24FF2487018091C00087FD22
:1079000017C00894E11CF11C011D111D81E4E8164B
:1079100082E4F8068FE0080780E0180770F3E09132
:107920000401F091050109958091C00087FFE9CF1E
:107930008091C6001F910F91FF90EF9008950E94D3
:10794000763C982F8091C00085FFFCCF9093C600B5
:1079500091362CF490330CF09053892F089597555D
:10796000892F08951F930E949F3C182F0E949F3CCF
:107970001295107F810F1F9108951F93182F882350
:1079800021F00E94763C1150E1F71F9108951F935A
:10799000182F0E94763C803249F0809103018F5F5E
:1079A000809303018530C1F01F9108958091C0003C
:1079B00085FFFCCF84E18093C6008091C00085FFE5
:1079C000FCCF1093C6008091C00085FFFCCF80E102
:1079D0008093C6001F910895E0910401F091050184
:1079E00009951F9108950E94763C803241F0809164
:1079F00003018F5F80930301853081F008958091AA
:107A0000C00085FFFCCF84E18093C6008091C00058
:107A100085FFFCCF80E18093C6000895E0910401CA
:107A2000F09105010995089540E951E08823A1F0FE
:107A30002D9A28EE33E0FA013197F1F721503040CA
:107A4000D1F72D9828EE33E0FA013197F1F7215064
:107A50003040D1F7815061F708953F924F925F9285
:107A60006F927F928F929F92AF92BF92CF92DF924E
:107A7000EF92FF920F931F93CF93DF93000080E16B
:107A80008093C4001092C50088E18093C10086E015
:107A90008093C2005098589A259A81E00E94143D24
:107AA00024E1F22E9EE1E92E85E9D82E0FE0C02ECA
:107AB00010E1B12EAA24A394B1E49B2EA6E58A2E50
:107AC000F2E57F2EE0E26E2E79E4572E63E5462E36
:107AD00050E5352E0E94763C8033B1F18133B9F107
:107AE000803409F46FC0813409F476C0823409F41B
:107AF00085C0853409F488C0803531F1823521F1A3
:107B0000813511F1853509F485C0863509F48DC0BC
:107B1000843609F496C0843709F403C1853709F423
:107B200072C1863709F466C0809103018F5F80932C
:107B30000301853079F6E0910401F0910501099582
:107B40000E94763C803351F60E94F33CC3CF0E94E2
:107B5000763C803249F78091C00085FFFCCFF092DF
:107B6000C6008091C00085FFFCCF9092C600809136
:107B7000C00085FFFCCF8092C6008091C00085FFC9
:107B8000FCCF7092C6008091C00085FFFCCF609250
:107B9000C6008091C00085FFFCCF5092C600809146
:107BA000C00085FFFCCF4092C6008091C00085FFD9
:107BB000FCCF3092C6008091C00085FFFCCFB09210
:107BC000C60088CF0E94763C863808F4BDCF0E945C
:107BD000763C0E94F33C7ECF0E94763C803809F4CC
:107BE0009CC0813809F40BC1823809F43CC1883942
:107BF00009F48FC080E00E94C73C6CCF84E10E94F2
:107C0000BD3C0E94F33C66CF85E00E94BD3C0E94D3
:107C1000F33C60CF0E94763C809306010E94763C44
:107C2000809307010E94F33C55CF0E94763C80333D
:107C300009F41DC183E00E94BD3C80E00E94C73C66
:107C400049CF0E94763C809309020E94763C809343
:107C5000080280910C028E7F80930C020E94763C79
:107C6000853409F415C18091080290910902892B8D
:107C700089F000E010E00E94763CF801E85FFE4FDA
:107C800080830F5F1F4F80910802909109020817AF
:107C9000190788F30E94763C803209F045CF809125
:107CA0000C0280FF01C16091060170910701660F0F
:107CB000771F7093070160930601A0910802B091AD
:107CC00009021097C9F0E8E0F1E09B01AD014E0F09
:107CD0005F1FF999FECF32BD21BD819180BDFA9A17
:107CE000F99A2F5F3F4FE417F50799F76A0F7B1F4B
:107CF00070930701609306018091C00085FFFCCF5F
:107D0000F092C6008091C00085FFFCCFB092C60003
:107D1000E1CE83E00E94C73CDDCE82E00E94C73CFA
:107D2000D9CE0E94763C809309020E94763C8093D3
:107D300008028091060190910701880F991F909386
:107D40000701809306010E94763C853409F4A6C0A1
:107D500080910C028E7F80930C020E94763C8032D0
:107D600009F0B8CE8091C00085FFFCCFF092C6002C
:107D7000609108027091090261157105B9F140E046
:107D800050E080910C02A82FA170B82FB27011C0E2
:107D9000BB2309F45CC0E0910601F0910701319624
:107DA000F0930701E09306014F5F5F4F46175707B7
:107DB000E8F4AA2369F3F999FECF209106013091E6
:107DC000070132BD21BDF89A90B58091C00085FFB2
:107DD000FCCF9093C6002F5F3F4F30930701209355
:107DE00006014F5F5F4F4617570718F38091C00099
:107DF00085FDE5CE8091C00085FFF8CFE0CE81E023
:107E00000E94C73C67CE0E94763C803209F08CCE3F
:107E10008091C00085FFFCCFF092C6008091C00029
:107E200085FFFCCFE092C6008091C00085FFFCCFAB
:107E3000D092C6008091C00085FFFCCFC092C600E2
:107E40008091C00085FFFCCFB092C60043CEE09188
:107E50000601F091070194918091C00085FFFCCF4D
:107E60009093C6009CCF80E10E94C73C33CE0E9415
:107E7000763C0E94763C182F0E94763C112309F430
:107E800083C0113009F484C08FE00E94C73C22CE29
:107E900080910C02816080930C02E5CE80910C02EF
:107EA000816080930C0259CF809107018823880F4D
:107EB000880B8A2180930B02809106019091070123
:107EC000880F991F90930701809306018091080203
:107ED00080FF09C080910802909109020196909359
:107EE000090280930802F894F999FECF1127E091D6
:107EF0000601F0910701C8E0D1E08091080290915D
:107F00000902103091F40091570001700130D9F34B
:107F100003E000935700E89500915700017001308D
:107F2000D9F301E100935700E89509901990009169
:107F3000570001700130D9F301E000935700E89534
:107F40001395103498F011270091570001700130FB
:107F5000D9F305E000935700E895009157000170B0
:107F60000130D9F301E100935700E895329602976A
:107F700009F0C7CF103011F00296E5CF112480919F
:107F8000C00085FFB9CEBCCE8EE10E94C73CA2CD19
:0C7F900085E90E94C73C9ECDF894FFCF0D
:027F9C00800063
:040000030000780081
:00000001FF
